{
  "contractName": "LandRegistry",
  "abi": [
    {
      "anonymous": false,
      "inputs": [
        {
          "indexed": true,
          "internalType": "uint256",
          "name": "propertyId",
          "type": "uint256"
        },
        {
          "indexed": false,
          "internalType": "bool",
          "name": "newStatus",
          "type": "bool"
        },
        {
          "indexed": false,
          "internalType": "uint256",
          "name": "timestamp",
          "type": "uint256"
        }
      ],
      "name": "ListingStatusChanged",
      "type": "event"
    },
    {
      "anonymous": false,
      "inputs": [
        {
          "indexed": true,
          "internalType": "uint256",
          "name": "propertyId",
          "type": "uint256"
        },
        {
          "indexed": true,
          "internalType": "address",
          "name": "previousOwner",
          "type": "address"
        },
        {
          "indexed": true,
          "internalType": "address",
          "name": "newOwner",
          "type": "address"
        },
        {
          "indexed": false,
          "internalType": "uint256",
          "name": "timestamp",
          "type": "uint256"
        }
      ],
      "name": "OwnershipTransferred",
      "type": "event"
    },
    {
      "anonymous": false,
      "inputs": [
        {
          "indexed": true,
          "internalType": "uint256",
          "name": "propertyId",
          "type": "uint256"
        },
        {
          "indexed": true,
          "internalType": "address",
          "name": "buyer",
          "type": "address"
        },
        {
          "indexed": false,
          "internalType": "uint256",
          "name": "price",
          "type": "uint256"
        },
        {
          "indexed": false,
          "internalType": "uint256",
          "name": "timestamp",
          "type": "uint256"
        }
      ],
      "name": "PropertyPurchased",
      "type": "event"
    },
    {
      "inputs": [
        {
          "internalType": "string",
          "name": "",
          "type": "string"
        }
      ],
      "name": "existingStreets",
      "outputs": [
        {
          "internalType": "bool",
          "name": "",
          "type": "bool"
        }
      ],
      "stateMutability": "view",
      "type": "function",
      "constant": true
    },
    {
      "inputs": [
        {
          "internalType": "uint256",
          "name": "",
          "type": "uint256"
        }
      ],
      "name": "properties",
      "outputs": [
        {
          "internalType": "uint256",
          "name": "id",
          "type": "uint256"
        },
        {
          "internalType": "string",
          "name": "city",
          "type": "string"
        },
        {
          "internalType": "string",
          "name": "district",
          "type": "string"
        },
        {
          "internalType": "string",
          "name": "street",
          "type": "string"
        },
        {
          "internalType": "uint256",
          "name": "squareMeters",
          "type": "uint256"
        },
        {
          "internalType": "uint256",
          "name": "price",
          "type": "uint256"
        },
        {
          "internalType": "address",
          "name": "currentOwner",
          "type": "address"
        },
        {
          "internalType": "bool",
          "name": "activeListing",
          "type": "bool"
        },
        {
          "internalType": "bool",
          "name": "isRegistered",
          "type": "bool"
        }
      ],
      "stateMutability": "view",
      "type": "function",
      "constant": true
    },
    {
      "inputs": [],
      "name": "propertiesCount",
      "outputs": [
        {
          "internalType": "uint256",
          "name": "",
          "type": "uint256"
        }
      ],
      "stateMutability": "view",
      "type": "function",
      "constant": true
    },
    {
      "inputs": [
        {
          "internalType": "string",
          "name": "city",
          "type": "string"
        },
        {
          "internalType": "string",
          "name": "district",
          "type": "string"
        },
        {
          "internalType": "string",
          "name": "street",
          "type": "string"
        },
        {
          "internalType": "uint256",
          "name": "squareMeters",
          "type": "uint256"
        },
        {
          "internalType": "uint256",
          "name": "price",
          "type": "uint256"
        }
      ],
      "name": "addProperty",
      "outputs": [],
      "stateMutability": "nonpayable",
      "type": "function"
    },
    {
      "inputs": [
        {
          "internalType": "uint256",
          "name": "propertyId",
          "type": "uint256"
        },
        {
          "internalType": "address",
          "name": "currentOwner",
          "type": "address"
        },
        {
          "internalType": "address",
          "name": "newOwner",
          "type": "address"
        }
      ],
      "name": "transferOwnership",
      "outputs": [],
      "stateMutability": "nonpayable",
      "type": "function"
    },
    {
      "inputs": [
        {
          "internalType": "uint256",
          "name": "propertyId",
          "type": "uint256"
        }
      ],
      "name": "buyProperty",
      "outputs": [],
      "stateMutability": "payable",
      "type": "function",
      "payable": true
    },
    {
      "inputs": [
        {
          "internalType": "uint256",
          "name": "propertyId",
          "type": "uint256"
        }
      ],
      "name": "changeListingStatus",
      "outputs": [],
      "stateMutability": "nonpayable",
      "type": "function"
    }
  ],
  "bytecode": "0x608060405234801561001057600080fd5b506117fd806100206000396000f3fe6080604052600436106100705760003560e01c80636fa830a61161004e5780636fa830a6146100f2578063952388c91461010e578063c94ea2fe14610137578063f7b108081461017457610070565b8063045cfded1461007557806306653f7c1461009e57806311447e87146100c7575b600080fd5b34801561008157600080fd5b5061009c60048036038101906100979190610e07565b6101b9565b005b3480156100aa57600080fd5b506100c560048036038101906100c09190610ec6565b6103ec565b005b3480156100d357600080fd5b506100dc610557565b6040516100e99190611488565b60405180910390f35b61010c60048036038101906101079190610ec6565b61055d565b005b34801561011a57600080fd5b5061013560048036038101906101309190610eef565b610798565b005b34801561014357600080fd5b5061015e60048036038101906101599190610dc6565b610a3b565b60405161016b9190611304565b60405180910390f35b34801561018057600080fd5b5061019b60048036038101906101969190610ec6565b610a71565b6040516101b0999897969594939291906114a3565b60405180910390f35b6001836040516101c991906112ed565b908152602001604051809103902060009054906101000a900460ff1615610225576040517f08c379a000000000000000000000000000000000000000000000000000000000815260040161021c906113c8565b60405180910390fd5b60026000815480929190610238906116b2565b91905055506001808460405161024e91906112ed565b908152602001604051809103902060006101000a81548160ff02191690831515021790555060405180610120016040528060025481526020018681526020018581526020018481526020018381526020018281526020013373ffffffffffffffffffffffffffffffffffffffff16815260200160011515815260200160011515815250600080600254815260200190815260200160002060008201518160000155602082015181600101908051906020019061030b929190610c91565b506040820151816002019080519060200190610328929190610c91565b506060820151816003019080519060200190610345929190610c91565b506080820151816004015560a0820151816005015560c08201518160060160006101000a81548173ffffffffffffffffffffffffffffffffffffffff021916908373ffffffffffffffffffffffffffffffffffffffff16021790555060e08201518160060160146101000a81548160ff0219169083151502179055506101008201518160060160156101000a81548160ff0219169083151502179055509050505050505050565b6000806000838152602001908152602001600020905080600001548214610448576040517f08c379a000000000000000000000000000000000000000000000000000000000815260040161043f90611468565b60405180910390fd5b8060060160009054906101000a900473ffffffffffffffffffffffffffffffffffffffff1673ffffffffffffffffffffffffffffffffffffffff163373ffffffffffffffffffffffffffffffffffffffff16146104da576040517f08c379a00000000000000000000000000000000000000000000000000000000081526004016104d190611388565b60405180910390fd5b8060060160149054906101000a900460ff16158160060160146101000a81548160ff021916908315150217905550817fe74a4f1f4ea9dae17a4534ac9cd1602761abebf9f33822635f980578a3fada638260060160149054906101000a900460ff164260405161054b92919061131f565b60405180910390a25050565b60025481565b600080600083815260200190815260200160002090508060060160159054906101000a900460ff166105c4576040517f08c379a00000000000000000000000000000000000000000000000000000000081526004016105bb90611368565b60405180910390fd5b600115158160060160149054906101000a900460ff1615151461061c576040517f08c379a0000000000000000000000000000000000000000000000000000000008152600401610613906113a8565b60405180910390fd5b80600001548214610662576040517f08c379a000000000000000000000000000000000000000000000000000000000815260040161065990611468565b60405180910390fd5b80600501543410156106a9576040517f08c379a00000000000000000000000000000000000000000000000000000000081526004016106a090611448565b60405180910390fd5b8060060160009054906101000a900473ffffffffffffffffffffffffffffffffffffffff1673ffffffffffffffffffffffffffffffffffffffff166108fc349081150290604051600060405180830381858888f19350505050158015610713573d6000803e3d6000fd5b50610743828260060160009054906101000a900473ffffffffffffffffffffffffffffffffffffffff1633610798565b3373ffffffffffffffffffffffffffffffffffffffff16827f06f7e1a3f96650ac8fa02f57505b25ca3951b25af81f609fb0b535ba53043ad7344260405161078c929190611545565b60405180910390a35050565b60008084815260200190815260200160002060060160159054906101000a900460ff166107fa576040517f08c379a00000000000000000000000000000000000000000000000000000000081526004016107f190611428565b60405180910390fd5b8173ffffffffffffffffffffffffffffffffffffffff1660008085815260200190815260200160002060060160009054906101000a900473ffffffffffffffffffffffffffffffffffffffff1673ffffffffffffffffffffffffffffffffffffffff161461089d576040517f08c379a0000000000000000000000000000000000000000000000000000000008152600401610894906113e8565b60405180910390fd5b600073ffffffffffffffffffffffffffffffffffffffff168173ffffffffffffffffffffffffffffffffffffffff16141561090d576040517f08c379a000000000000000000000000000000000000000000000000000000000815260040161090490611348565b60405180910390fd5b8173ffffffffffffffffffffffffffffffffffffffff168173ffffffffffffffffffffffffffffffffffffffff16141561097c576040517f08c379a000000000000000000000000000000000000000000000000000000000815260040161097390611408565b60405180910390fd5b8060008085815260200190815260200160002060060160006101000a81548173ffffffffffffffffffffffffffffffffffffffff021916908373ffffffffffffffffffffffffffffffffffffffff1602179055508073ffffffffffffffffffffffffffffffffffffffff168273ffffffffffffffffffffffffffffffffffffffff16847f06f354ec7b9d2ca4e029f73ccb9119943a48c3295704dd66ca8beda0c7bae33f42604051610a2e9190611488565b60405180910390a4505050565b6001818051602081018201805184825260208301602085012081835280955050505050506000915054906101000a900460ff1681565b6000602052806000526040600020600091509050806000015490806001018054610a9a90611680565b80601f0160208091040260200160405190810160405280929190818152602001828054610ac690611680565b8015610b135780601f10610ae857610100808354040283529160200191610b13565b820191906000526020600020905b815481529060010190602001808311610af657829003601f168201915b505050505090806002018054610b2890611680565b80601f0160208091040260200160405190810160405280929190818152602001828054610b5490611680565b8015610ba15780601f10610b7657610100808354040283529160200191610ba1565b820191906000526020600020905b815481529060010190602001808311610b8457829003601f168201915b505050505090806003018054610bb690611680565b80601f0160208091040260200160405190810160405280929190818152602001828054610be290611680565b8015610c2f5780601f10610c0457610100808354040283529160200191610c2f565b820191906000526020600020905b815481529060010190602001808311610c1257829003601f168201915b5050505050908060040154908060050154908060060160009054906101000a900473ffffffffffffffffffffffffffffffffffffffff16908060060160149054906101000a900460ff16908060060160159054906101000a900460ff16905089565b828054610c9d90611680565b90600052602060002090601f016020900481019282610cbf5760008555610d06565b82601f10610cd857805160ff1916838001178555610d06565b82800160010185558215610d06579182015b82811115610d05578251825591602001919060010190610cea565b5b509050610d139190610d17565b5090565b5b80821115610d30576000816000905550600101610d18565b5090565b6000610d47610d428461159f565b61156e565b905082815260208101848484011115610d5f57600080fd5b610d6a84828561163e565b509392505050565b600081359050610d8181611799565b92915050565b600082601f830112610d9857600080fd5b8135610da8848260208601610d34565b91505092915050565b600081359050610dc0816117b0565b92915050565b600060208284031215610dd857600080fd5b600082013567ffffffffffffffff811115610df257600080fd5b610dfe84828501610d87565b91505092915050565b600080600080600060a08688031215610e1f57600080fd5b600086013567ffffffffffffffff811115610e3957600080fd5b610e4588828901610d87565b955050602086013567ffffffffffffffff811115610e6257600080fd5b610e6e88828901610d87565b945050604086013567ffffffffffffffff811115610e8b57600080fd5b610e9788828901610d87565b9350506060610ea888828901610db1565b9250506080610eb988828901610db1565b9150509295509295909350565b600060208284031215610ed857600080fd5b6000610ee684828501610db1565b91505092915050565b600080600060608486031215610f0457600080fd5b6000610f1286828701610db1565b9350506020610f2386828701610d72565b9250506040610f3486828701610d72565b9150509250925092565b610f47816115f6565b82525050565b610f5681611608565b82525050565b6000610f67826115cf565b610f7181856115da565b9350610f8181856020860161164d565b610f8a81611788565b840191505092915050565b6000610fa0826115cf565b610faa81856115eb565b9350610fba81856020860161164d565b80840191505092915050565b6000610fd3601a836115da565b91507f496e76616c6964206e6577206f776e65727320616464726573730000000000006000830152602082019050919050565b60006110136030836115da565b91507f50726f706572747920796f752061726520747279696e6720746f20627579206960008301527f73206e6f742072656769737465726564000000000000000000000000000000006020830152604082019050919050565b60006110796026836115da565b91507f4c697374696e6720646f65736e27742062656c6f6e6720746f2074686973206160008301527f63636f756e7400000000000000000000000000000000000000000000000000006020830152604082019050919050565b60006110df601a836115da565b91507f43616e27742062757920696e616374697665206c697374696e670000000000006000830152602082019050919050565b600061111f601c836115da565b91507f546869732070726f706572747920616c726561647920657869737473000000006000830152602082019050919050565b600061115f6028836115da565b91507f4f6e6c792063757272656e74206f776e65722063616e206d616b65207468652060008301527f7472616e736665720000000000000000000000000000000000000000000000006020830152604082019050919050565b60006111c56024836115da565b91507f4e6577206f776e65722063616e2774206265207468652063757272656e74206f60008301527f776e6572000000000000000000000000000000000000000000000000000000006020830152604082019050919050565b600061122b601a836115da565b91507f50726f7065727479206973206e6f7420726567697374657265640000000000006000830152602082019050919050565b600061126b6017836115da565b91507f496e73756666696369656e742066756e64732073656e740000000000000000006000830152602082019050919050565b60006112ab601a836115da565b91507f50726f70657274792049442773206e6f74206d61746368696e670000000000006000830152602082019050919050565b6112e781611634565b82525050565b60006112f98284610f95565b915081905092915050565b60006020820190506113196000830184610f4d565b92915050565b60006040820190506113346000830185610f4d565b61134160208301846112de565b9392505050565b6000602082019050818103600083015261136181610fc6565b9050919050565b6000602082019050818103600083015261138181611006565b9050919050565b600060208201905081810360008301526113a18161106c565b9050919050565b600060208201905081810360008301526113c1816110d2565b9050919050565b600060208201905081810360008301526113e181611112565b9050919050565b6000602082019050818103600083015261140181611152565b9050919050565b60006020820190508181036000830152611421816111b8565b9050919050565b600060208201905081810360008301526114418161121e565b9050919050565b600060208201905081810360008301526114618161125e565b9050919050565b600060208201905081810360008301526114818161129e565b9050919050565b600060208201905061149d60008301846112de565b92915050565b6000610120820190506114b9600083018c6112de565b81810360208301526114cb818b610f5c565b905081810360408301526114df818a610f5c565b905081810360608301526114f38189610f5c565b905061150260808301886112de565b61150f60a08301876112de565b61151c60c0830186610f3e565b61152960e0830185610f4d565b611537610100830184610f4d565b9a9950505050505050505050565b600060408201905061155a60008301856112de565b61156760208301846112de565b9392505050565b6000604051905081810181811067ffffffffffffffff8211171561159557611594611759565b5b8060405250919050565b600067ffffffffffffffff8211156115ba576115b9611759565b5b601f19601f8301169050602081019050919050565b600081519050919050565b600082825260208201905092915050565b600081905092915050565b600061160182611614565b9050919050565b60008115159050919050565b600073ffffffffffffffffffffffffffffffffffffffff82169050919050565b6000819050919050565b82818337600083830152505050565b60005b8381101561166b578082015181840152602081019050611650565b8381111561167a576000848401525b50505050565b6000600282049050600182168061169857607f821691505b602082108114156116ac576116ab61172a565b5b50919050565b60006116bd82611634565b91507fffffffffffffffffffffffffffffffffffffffffffffffffffffffffffffffff8214156116f0576116ef6116fb565b5b600182019050919050565b7f4e487b7100000000000000000000000000000000000000000000000000000000600052601160045260246000fd5b7f4e487b7100000000000000000000000000000000000000000000000000000000600052602260045260246000fd5b7f4e487b7100000000000000000000000000000000000000000000000000000000600052604160045260246000fd5b6000601f19601f8301169050919050565b6117a2816115f6565b81146117ad57600080fd5b50565b6117b981611634565b81146117c457600080fd5b5056fea2646970667358221220d376f34979d69c57f8525fcccad3b3a2539c5c80eb506d8f1b4364ce70e5312a64736f6c63430008000033",
  "immutableReferences": {},
  "source": "// SPDX-License-Identifier: MIT\npragma solidity ^0.8.0;\n\ncontract LandRegistry {\n\n    struct Property {\n        uint256 id;\n        string city;\n        string district;\n        string street;\n        uint256 squareMeters;\n        uint256 price;\n        address currentOwner;\n        bool activeListing;\n        bool isRegistered;\n    }\n\n    mapping(uint256 => Property) public properties;\n    mapping(string => bool) public existingStreets;\n    uint256 public propertiesCount;\n\n    event OwnershipTransferred(\n        uint256 indexed propertyId,\n        address indexed previousOwner,\n        address indexed newOwner,\n        uint256 timestamp\n    );\n\n    event PropertyPurchased(\n        uint256 indexed propertyId,\n        address indexed buyer,\n        uint256 price,\n        uint256 timestamp\n    );\n\n    event ListingStatusChanged(\n        uint256 indexed propertyId,\n        bool newStatus,\n        uint256 timestamp\n    );\n\n    function addProperty(\n        string memory city,\n        string memory district,\n        string memory street,\n        uint256 squareMeters,\n        uint256 price\n    ) public {\n        require(!existingStreets[street], \"This property already exists\");\n\n        propertiesCount++;\n\n        existingStreets[street] = true;\n\n        properties[propertiesCount] = Property(\n            propertiesCount,\n            city,\n            district,\n            street,\n            squareMeters,\n            price,\n            msg.sender,\n            true,\n            true\n        );\n    }\n\n    function transferOwnership(\n        uint256 propertyId,\n        address currentOwner,\n        address newOwner\n    ) public {\n        require(properties[propertyId].isRegistered, \"Property is not registered\");\n        require(properties[propertyId].currentOwner == currentOwner, \"Only current owner can make the transfer\");\n        require(newOwner != address(0), \"Invalid new owners address\");\n        require(newOwner != currentOwner, \"New owner can't be the current owner\");\n\n        properties[propertyId].currentOwner = newOwner;\n\n        emit OwnershipTransferred(\n            propertyId,\n            currentOwner,\n            newOwner,\n            block.timestamp\n        );\n    }\n\n    function buyProperty(\n        uint256 propertyId\n    ) public payable {\n        Property storage property = properties[propertyId];\n\n        require(property.isRegistered, \"Property you are trying to buy is not registered\");\n        require(property.activeListing == true, \"Can't buy inactive listing\");\n        require(propertyId == property.id, \"Property ID's not matching\");\n        require(msg.value >= property.price, \"Insufficient funds sent\");\n\n        payable(property.currentOwner).transfer(msg.value);\n\n        transferOwnership(propertyId, property.currentOwner, msg.sender);\n\n        emit PropertyPurchased(propertyId, msg.sender, msg.value, block.timestamp);\n    }\n\n    function changeListingStatus(\n        uint256 propertyId\n    ) public {\n        Property storage property = properties[propertyId];\n\n        require(propertyId == property.id, \"Property ID's not matching\");\n        require(msg.sender == property.currentOwner, \"Listing doesn't belong to this account\");\n\n        property.activeListing = !property.activeListing;\n\n        emit ListingStatusChanged(propertyId, property.activeListing, block.timestamp);\n    }\n\n}\n",
  "sourcePath": "/Users/aivisvigo/land-registry/src/truffle/contracts/LandRegistry.sol",
  "compiler": {
    "name": "solc",
    "version": "0.8.0+commit.c7dfd78e.Emscripten.clang"
  },
  "schemaVersion": "3.4.16",
  "updatedAt": "2024-12-15T12:11:33.571Z",
  "networkType": "ethereum",
  "devdoc": {
    "kind": "dev",
    "methods": {},
    "version": 1
  },
  "userdoc": {
    "kind": "user",
    "methods": {},
    "version": 1
  }
}