{
  "contractName": "LandRegistry",
  "abi": [
    {
      "anonymous": false,
      "inputs": [
        {
          "indexed": true,
          "internalType": "uint256",
          "name": "propertyId",
          "type": "uint256"
        },
        {
          "indexed": true,
          "internalType": "address",
          "name": "previousOwner",
          "type": "address"
        },
        {
          "indexed": true,
          "internalType": "address",
          "name": "newOwner",
          "type": "address"
        },
        {
          "indexed": false,
          "internalType": "uint256",
          "name": "timestamp",
          "type": "uint256"
        }
      ],
      "name": "OwnershipTransferred",
      "type": "event"
    },
    {
      "inputs": [
        {
          "internalType": "uint256",
          "name": "",
          "type": "uint256"
        }
      ],
      "name": "properties",
      "outputs": [
        {
          "internalType": "uint256",
          "name": "id",
          "type": "uint256"
        },
        {
          "internalType": "string",
          "name": "city",
          "type": "string"
        },
        {
          "internalType": "string",
          "name": "district",
          "type": "string"
        },
        {
          "internalType": "string",
          "name": "street",
          "type": "string"
        },
        {
          "internalType": "uint256",
          "name": "squareMeters",
          "type": "uint256"
        },
        {
          "internalType": "uint256",
          "name": "price",
          "type": "uint256"
        },
        {
          "internalType": "address",
          "name": "currentOwner",
          "type": "address"
        },
        {
          "internalType": "bool",
          "name": "activeListing",
          "type": "bool"
        },
        {
          "internalType": "bool",
          "name": "isRegistered",
          "type": "bool"
        }
      ],
      "stateMutability": "view",
      "type": "function",
      "constant": true
    },
    {
      "inputs": [],
      "name": "propertiesCount",
      "outputs": [
        {
          "internalType": "uint256",
          "name": "",
          "type": "uint256"
        }
      ],
      "stateMutability": "view",
      "type": "function",
      "constant": true
    },
    {
      "inputs": [
        {
          "internalType": "string",
          "name": "city",
          "type": "string"
        },
        {
          "internalType": "string",
          "name": "district",
          "type": "string"
        },
        {
          "internalType": "string",
          "name": "street",
          "type": "string"
        },
        {
          "internalType": "uint256",
          "name": "squareMeters",
          "type": "uint256"
        },
        {
          "internalType": "uint256",
          "name": "price",
          "type": "uint256"
        }
      ],
      "name": "addProperty",
      "outputs": [],
      "stateMutability": "nonpayable",
      "type": "function"
    },
    {
      "inputs": [
        {
          "internalType": "uint256",
          "name": "propertyId",
          "type": "uint256"
        },
        {
          "internalType": "address",
          "name": "currentOwner",
          "type": "address"
        },
        {
          "internalType": "address",
          "name": "newOwner",
          "type": "address"
        }
      ],
      "name": "transferOwnership",
      "outputs": [],
      "stateMutability": "nonpayable",
      "type": "function"
    },
    {
      "inputs": [
        {
          "internalType": "uint256",
          "name": "propertyId",
          "type": "uint256"
        }
      ],
      "name": "buyProperty",
      "outputs": [],
      "stateMutability": "payable",
      "type": "function",
      "payable": true
    },
    {
      "inputs": [
        {
          "internalType": "uint256",
          "name": "propertyId",
          "type": "uint256"
        }
      ],
      "name": "changeListingStatus",
      "outputs": [],
      "stateMutability": "nonpayable",
      "type": "function"
    }
  ],
  "bytecode": "0x608060405234801561001057600080fd5b506114d0806100206000396000f3fe6080604052600436106100555760003560e01c8063045cfded1461005a57806306653f7c1461008357806311447e87146100ac5780636fa830a6146100d7578063952388c9146100f3578063f7b108081461011c575b600080fd5b34801561006657600080fd5b50610081600480360381019061007c9190610bfa565b610161565b005b34801561008f57600080fd5b506100aa60048036038101906100a59190610cb9565b6102f2565b005b3480156100b857600080fd5b506100c1610412565b6040516100ce919061118f565b60405180910390f35b6100f160048036038101906100ec9190610cb9565b610418565b005b3480156100ff57600080fd5b5061011a60048036038101906101159190610ce2565b610602565b005b34801561012857600080fd5b50610143600480360381019061013e9190610cb9565b6108a5565b604051610158999897969594939291906111aa565b60405180910390f35b6001600081548092919061017490611385565b919050555060405180610120016040528060015481526020018681526020018581526020018481526020018381526020018281526020013373ffffffffffffffffffffffffffffffffffffffff168152602001600115158152602001600115158152506000806001548152602001908152602001600020600082015181600001556020820151816001019080519060200190610211929190610ac5565b50604082015181600201908051906020019061022e929190610ac5565b50606082015181600301908051906020019061024b929190610ac5565b506080820151816004015560a0820151816005015560c08201518160060160006101000a81548173ffffffffffffffffffffffffffffffffffffffff021916908373ffffffffffffffffffffffffffffffffffffffff16021790555060e08201518160060160146101000a81548160ff0219169083151502179055506101008201518160060160156101000a81548160ff0219169083151502179055509050505050505050565b600080600083815260200190815260200160002090508060000154821461034e576040517f08c379a00000000000000000000000000000000000000000000000000000000081526004016103459061116f565b60405180910390fd5b8060060160009054906101000a900473ffffffffffffffffffffffffffffffffffffffff1673ffffffffffffffffffffffffffffffffffffffff163373ffffffffffffffffffffffffffffffffffffffff16146103e0576040517f08c379a00000000000000000000000000000000000000000000000000000000081526004016103d7906110af565b60405180910390fd5b8060060160149054906101000a900460ff16158160060160146101000a81548160ff0219169083151502179055505050565b60015481565b600080600083815260200190815260200160002090508060060160159054906101000a900460ff1661047f576040517f08c379a00000000000000000000000000000000000000000000000000000000081526004016104769061108f565b60405180910390fd5b600115158160060160149054906101000a900460ff161515146104d7576040517f08c379a00000000000000000000000000000000000000000000000000000000081526004016104ce906110cf565b60405180910390fd5b8060000154821461051d576040517f08c379a00000000000000000000000000000000000000000000000000000000081526004016105149061116f565b60405180910390fd5b8060050154341015610564576040517f08c379a000000000000000000000000000000000000000000000000000000000815260040161055b9061114f565b60405180910390fd5b8060060160009054906101000a900473ffffffffffffffffffffffffffffffffffffffff1673ffffffffffffffffffffffffffffffffffffffff166108fc349081150290604051600060405180830381858888f193505050501580156105ce573d6000803e3d6000fd5b506105fe828260060160009054906101000a900473ffffffffffffffffffffffffffffffffffffffff1633610602565b5050565b60008084815260200190815260200160002060060160159054906101000a900460ff16610664576040517f08c379a000000000000000000000000000000000000000000000000000000000815260040161065b9061112f565b60405180910390fd5b8173ffffffffffffffffffffffffffffffffffffffff1660008085815260200190815260200160002060060160009054906101000a900473ffffffffffffffffffffffffffffffffffffffff1673ffffffffffffffffffffffffffffffffffffffff1614610707576040517f08c379a00000000000000000000000000000000000000000000000000000000081526004016106fe906110ef565b60405180910390fd5b600073ffffffffffffffffffffffffffffffffffffffff168173ffffffffffffffffffffffffffffffffffffffff161415610777576040517f08c379a000000000000000000000000000000000000000000000000000000000815260040161076e9061106f565b60405180910390fd5b8173ffffffffffffffffffffffffffffffffffffffff168173ffffffffffffffffffffffffffffffffffffffff1614156107e6576040517f08c379a00000000000000000000000000000000000000000000000000000000081526004016107dd9061110f565b60405180910390fd5b8060008085815260200190815260200160002060060160006101000a81548173ffffffffffffffffffffffffffffffffffffffff021916908373ffffffffffffffffffffffffffffffffffffffff1602179055508073ffffffffffffffffffffffffffffffffffffffff168273ffffffffffffffffffffffffffffffffffffffff16847f06f354ec7b9d2ca4e029f73ccb9119943a48c3295704dd66ca8beda0c7bae33f42604051610898919061118f565b60405180910390a4505050565b60006020528060005260406000206000915090508060000154908060010180546108ce90611353565b80601f01602080910402602001604051908101604052809291908181526020018280546108fa90611353565b80156109475780601f1061091c57610100808354040283529160200191610947565b820191906000526020600020905b81548152906001019060200180831161092a57829003601f168201915b50505050509080600201805461095c90611353565b80601f016020809104026020016040519081016040528092919081815260200182805461098890611353565b80156109d55780601f106109aa576101008083540402835291602001916109d5565b820191906000526020600020905b8154815290600101906020018083116109b857829003601f168201915b5050505050908060030180546109ea90611353565b80601f0160208091040260200160405190810160405280929190818152602001828054610a1690611353565b8015610a635780601f10610a3857610100808354040283529160200191610a63565b820191906000526020600020905b815481529060010190602001808311610a4657829003601f168201915b5050505050908060040154908060050154908060060160009054906101000a900473ffffffffffffffffffffffffffffffffffffffff16908060060160149054906101000a900460ff16908060060160159054906101000a900460ff16905089565b828054610ad190611353565b90600052602060002090601f016020900481019282610af35760008555610b3a565b82601f10610b0c57805160ff1916838001178555610b3a565b82800160010185558215610b3a579182015b82811115610b39578251825591602001919060010190610b1e565b5b509050610b479190610b4b565b5090565b5b80821115610b64576000816000905550600101610b4c565b5090565b6000610b7b610b768461127d565b61124c565b905082815260208101848484011115610b9357600080fd5b610b9e848285611311565b509392505050565b600081359050610bb58161146c565b92915050565b600082601f830112610bcc57600080fd5b8135610bdc848260208601610b68565b91505092915050565b600081359050610bf481611483565b92915050565b600080600080600060a08688031215610c1257600080fd5b600086013567ffffffffffffffff811115610c2c57600080fd5b610c3888828901610bbb565b955050602086013567ffffffffffffffff811115610c5557600080fd5b610c6188828901610bbb565b945050604086013567ffffffffffffffff811115610c7e57600080fd5b610c8a88828901610bbb565b9350506060610c9b88828901610be5565b9250506080610cac88828901610be5565b9150509295509295909350565b600060208284031215610ccb57600080fd5b6000610cd984828501610be5565b91505092915050565b600080600060608486031215610cf757600080fd5b6000610d0586828701610be5565b9350506020610d1686828701610ba6565b9250506040610d2786828701610ba6565b9150509250925092565b610d3a816112c9565b82525050565b610d49816112db565b82525050565b6000610d5a826112ad565b610d6481856112b8565b9350610d74818560208601611320565b610d7d8161145b565b840191505092915050565b6000610d95601a836112b8565b91507f496e76616c6964206e6577206f776e65727320616464726573730000000000006000830152602082019050919050565b6000610dd56030836112b8565b91507f50726f706572747920796f752061726520747279696e6720746f20627579206960008301527f73206e6f742072656769737465726564000000000000000000000000000000006020830152604082019050919050565b6000610e3b6026836112b8565b91507f4c697374696e6720646f65736e27742062656c6f6e6720746f2074686973206160008301527f63636f756e7400000000000000000000000000000000000000000000000000006020830152604082019050919050565b6000610ea1601a836112b8565b91507f43616e27742062757920696e616374697665206c697374696e670000000000006000830152602082019050919050565b6000610ee16028836112b8565b91507f4f6e6c792063757272656e74206f776e65722063616e206d616b65207468652060008301527f7472616e736665720000000000000000000000000000000000000000000000006020830152604082019050919050565b6000610f476024836112b8565b91507f4e6577206f776e65722063616e2774206265207468652063757272656e74206f60008301527f776e6572000000000000000000000000000000000000000000000000000000006020830152604082019050919050565b6000610fad601a836112b8565b91507f50726f7065727479206973206e6f7420726567697374657265640000000000006000830152602082019050919050565b6000610fed6017836112b8565b91507f496e73756666696369656e742066756e64732073656e740000000000000000006000830152602082019050919050565b600061102d601a836112b8565b91507f50726f70657274792049442773206e6f74206d61746368696e670000000000006000830152602082019050919050565b61106981611307565b82525050565b6000602082019050818103600083015261108881610d88565b9050919050565b600060208201905081810360008301526110a881610dc8565b9050919050565b600060208201905081810360008301526110c881610e2e565b9050919050565b600060208201905081810360008301526110e881610e94565b9050919050565b6000602082019050818103600083015261110881610ed4565b9050919050565b6000602082019050818103600083015261112881610f3a565b9050919050565b6000602082019050818103600083015261114881610fa0565b9050919050565b6000602082019050818103600083015261116881610fe0565b9050919050565b6000602082019050818103600083015261118881611020565b9050919050565b60006020820190506111a46000830184611060565b92915050565b6000610120820190506111c0600083018c611060565b81810360208301526111d2818b610d4f565b905081810360408301526111e6818a610d4f565b905081810360608301526111fa8189610d4f565b90506112096080830188611060565b61121660a0830187611060565b61122360c0830186610d31565b61123060e0830185610d40565b61123e610100830184610d40565b9a9950505050505050505050565b6000604051905081810181811067ffffffffffffffff821117156112735761127261142c565b5b8060405250919050565b600067ffffffffffffffff8211156112985761129761142c565b5b601f19601f8301169050602081019050919050565b600081519050919050565b600082825260208201905092915050565b60006112d4826112e7565b9050919050565b60008115159050919050565b600073ffffffffffffffffffffffffffffffffffffffff82169050919050565b6000819050919050565b82818337600083830152505050565b60005b8381101561133e578082015181840152602081019050611323565b8381111561134d576000848401525b50505050565b6000600282049050600182168061136b57607f821691505b6020821081141561137f5761137e6113fd565b5b50919050565b600061139082611307565b91507fffffffffffffffffffffffffffffffffffffffffffffffffffffffffffffffff8214156113c3576113c26113ce565b5b600182019050919050565b7f4e487b7100000000000000000000000000000000000000000000000000000000600052601160045260246000fd5b7f4e487b7100000000000000000000000000000000000000000000000000000000600052602260045260246000fd5b7f4e487b7100000000000000000000000000000000000000000000000000000000600052604160045260246000fd5b6000601f19601f8301169050919050565b611475816112c9565b811461148057600080fd5b50565b61148c81611307565b811461149757600080fd5b5056fea2646970667358221220ec9e51ccb3bbd9c77274e89b196712e5d48069e444a1e527f0b7a69c845f0b3764736f6c63430008000033",
  "immutableReferences": {},
  "source": "// SPDX-License-Identifier: MIT\npragma solidity ^0.8.0;\n\ncontract LandRegistry {\n\n    struct Property {\n        uint256 id;\n        string city;\n        string district;\n        string street;\n        uint256 squareMeters;\n        uint256 price;\n        address currentOwner;\n        bool activeListing;\n        bool isRegistered;\n    }\n\n    mapping(uint256 => Property) public properties;\n    uint256 public propertiesCount;\n\n    event OwnershipTransferred(\n        uint256 indexed propertyId,\n        address indexed previousOwner,\n        address indexed newOwner,\n        uint256 timestamp\n    );\n\n    function addProperty(\n        string memory city,\n        string memory district,\n        string memory street,\n        uint256 squareMeters,\n        uint256 price\n    ) public {\n        propertiesCount++;\n\n        properties[propertiesCount] = Property(\n            propertiesCount,\n            city,\n            district,\n            street,\n            squareMeters,\n            price,\n            msg.sender,\n            true,\n            true\n        );\n    }\n\n    function transferOwnership(\n        uint256 propertyId,\n        address currentOwner,\n        address newOwner\n    ) public {\n        require(properties[propertyId].isRegistered, \"Property is not registered\");\n        require(properties[propertyId].currentOwner == currentOwner, \"Only current owner can make the transfer\");\n        require(newOwner != address(0), \"Invalid new owners address\");\n        require(newOwner != currentOwner, \"New owner can't be the current owner\");\n\n        properties[propertyId].currentOwner = newOwner;\n\n        emit OwnershipTransferred(\n            propertyId,\n            currentOwner,\n            newOwner,\n            block.timestamp\n        );\n    }\n\n    /* todo: funds are released if the transaction fails for some reason */\n    /* todo: event to track when transaction took place */\n    function buyProperty(\n        uint256 propertyId\n    ) public payable {\n        Property storage property = properties[propertyId];\n\n        require(property.isRegistered, \"Property you are trying to buy is not registered\");\n        require(property.activeListing == true, \"Can't buy inactive listing\");\n        require(propertyId == property.id, \"Property ID's not matching\");\n        require(msg.value >= property.price, \"Insufficient funds sent\");\n\n        payable(property.currentOwner).transfer(msg.value);\n\n        transferOwnership(propertyId, property.currentOwner, msg.sender);\n    }\n\n    /* todo: event with timestamp to track the time when changes took place */\n    function changeListingStatus(\n        uint256 propertyId\n    ) public {\n        Property storage property = properties[propertyId];\n\n        require(propertyId == property.id, \"Property ID's not matching\");\n        require(msg.sender == property.currentOwner, \"Listing doesn't belong to this account\");\n\n        property.activeListing = !property.activeListing;\n    }\n\n}\n",
  "sourcePath": "/Users/aivisvigo/land-registry/src/truffle/contracts/LandRegistry.sol",
  "compiler": {
    "name": "solc",
    "version": "0.8.0+commit.c7dfd78e.Emscripten.clang"
  },
  "schemaVersion": "3.4.16",
  "updatedAt": "2024-12-14T10:42:04.962Z",
  "networkType": "ethereum",
  "devdoc": {
    "kind": "dev",
    "methods": {},
    "version": 1
  },
  "userdoc": {
    "kind": "user",
    "methods": {},
    "version": 1
  }
}