{
  "contractName": "LandRegistry",
  "abi": [
    {
      "inputs": [],
      "stateMutability": "nonpayable",
      "type": "constructor"
    },
    {
      "inputs": [
        {
          "internalType": "uint256",
          "name": "",
          "type": "uint256"
        }
      ],
      "name": "properties",
      "outputs": [
        {
          "internalType": "uint256",
          "name": "id",
          "type": "uint256"
        },
        {
          "internalType": "string",
          "name": "city",
          "type": "string"
        },
        {
          "internalType": "string",
          "name": "district",
          "type": "string"
        },
        {
          "internalType": "string",
          "name": "street",
          "type": "string"
        },
        {
          "internalType": "uint256",
          "name": "squareMeters",
          "type": "uint256"
        },
        {
          "internalType": "uint256",
          "name": "price",
          "type": "uint256"
        },
        {
          "internalType": "address",
          "name": "currentOwner",
          "type": "address"
        },
        {
          "internalType": "bool",
          "name": "isRegistered",
          "type": "bool"
        }
      ],
      "stateMutability": "view",
      "type": "function",
      "constant": true
    },
    {
      "inputs": [],
      "name": "propertiesCount",
      "outputs": [
        {
          "internalType": "uint256",
          "name": "",
          "type": "uint256"
        }
      ],
      "stateMutability": "view",
      "type": "function",
      "constant": true
    },
    {
      "inputs": [
        {
          "internalType": "string",
          "name": "city",
          "type": "string"
        },
        {
          "internalType": "string",
          "name": "district",
          "type": "string"
        },
        {
          "internalType": "string",
          "name": "street",
          "type": "string"
        },
        {
          "internalType": "uint256",
          "name": "squareMeters",
          "type": "uint256"
        },
        {
          "internalType": "uint256",
          "name": "price",
          "type": "uint256"
        }
      ],
      "name": "addProperty",
      "outputs": [],
      "stateMutability": "nonpayable",
      "type": "function"
    }
  ],
  "bytecode": "0x60806040523480156200001157600080fd5b50620000cb6040518060400160405280600481526020017f52696761000000000000000000000000000000000000000000000000000000008152506040518060400160405280600681526020017f43656e74727300000000000000000000000000000000000000000000000000008152506040518060400160405280600d81526020017f447a69726e6176752069656c61000000000000000000000000000000000000008152506101226204ce786200024360201b60201c565b620001846040518060400160405280600481526020017f52696761000000000000000000000000000000000000000000000000000000008152506040518060400160405280600581526020017f5465696b610000000000000000000000000000000000000000000000000000008152506040518060400160405280600b81526020017f4175736d61732069656c61000000000000000000000000000000000000000000815250610212620b37186200024360201b60201c565b6200023d6040518060400160405280600481526020017f52696761000000000000000000000000000000000000000000000000000000008152506040518060400160405280600981526020017f507572766369656d7300000000000000000000000000000000000000000000008152506040518060400160405280600e81526020017f447a656c7a617661732069656c610000000000000000000000000000000000008152506102ee620ed2ec6200024360201b60201c565b6200054e565b600160008154809291906200025890620004a2565b919050555060405180610100016040528060015481526020018681526020018581526020018481526020018381526020018281526020013373ffffffffffffffffffffffffffffffffffffffff168152602001600115158152506000806001548152602001908152602001600020600082015181600001556020820151816001019080519060200190620002ee929190620003b2565b5060408201518160020190805190602001906200030d929190620003b2565b5060608201518160030190805190602001906200032c929190620003b2565b506080820151816004015560a0820151816005015560c08201518160060160006101000a81548173ffffffffffffffffffffffffffffffffffffffff021916908373ffffffffffffffffffffffffffffffffffffffff16021790555060e08201518160060160146101000a81548160ff0219169083151502179055509050505050505050565b828054620003c0906200046c565b90600052602060002090601f016020900481019282620003e4576000855562000430565b82601f10620003ff57805160ff191683800117855562000430565b8280016001018555821562000430579182015b828111156200042f57825182559160200191906001019062000412565b5b5090506200043f919062000443565b5090565b5b808211156200045e57600081600090555060010162000444565b5090565b6000819050919050565b600060028204905060018216806200048557607f821691505b602082108114156200049c576200049b6200051f565b5b50919050565b6000620004af8262000462565b91507fffffffffffffffffffffffffffffffffffffffffffffffffffffffffffffffff821415620004e557620004e4620004f0565b5b600182019050919050565b7f4e487b7100000000000000000000000000000000000000000000000000000000600052601160045260246000fd5b7f4e487b7100000000000000000000000000000000000000000000000000000000600052602260045260246000fd5b6109ba806200055e6000396000f3fe608060405234801561001057600080fd5b50600436106100415760003560e01c8063045cfded1461004657806311447e8714610062578063f7b1080814610080575b600080fd5b610060600480360381019061005b9190610551565b6100b7565b005b61006a61021e565b604051610077919061069f565b60405180910390f35b61009a60048036038101906100959190610610565b610224565b6040516100ae9897969594939291906106ba565b60405180910390f35b600160008154809291906100ca90610886565b919050555060405180610100016040528060015481526020018681526020018581526020018481526020018381526020018281526020013373ffffffffffffffffffffffffffffffffffffffff16815260200160011515815250600080600154815260200190815260200160002060008201518160000155602082015181600101908051906020019061015e929190610431565b50604082015181600201908051906020019061017b929190610431565b506060820151816003019080519060200190610198929190610431565b506080820151816004015560a0820151816005015560c08201518160060160006101000a81548173ffffffffffffffffffffffffffffffffffffffff021916908373ffffffffffffffffffffffffffffffffffffffff16021790555060e08201518160060160146101000a81548160ff0219169083151502179055509050505050505050565b60015481565b600060205280600052604060002060009150905080600001549080600101805461024d90610854565b80601f016020809104026020016040519081016040528092919081815260200182805461027990610854565b80156102c65780601f1061029b576101008083540402835291602001916102c6565b820191906000526020600020905b8154815290600101906020018083116102a957829003601f168201915b5050505050908060020180546102db90610854565b80601f016020809104026020016040519081016040528092919081815260200182805461030790610854565b80156103545780601f1061032957610100808354040283529160200191610354565b820191906000526020600020905b81548152906001019060200180831161033757829003601f168201915b50505050509080600301805461036990610854565b80601f016020809104026020016040519081016040528092919081815260200182805461039590610854565b80156103e25780601f106103b7576101008083540402835291602001916103e2565b820191906000526020600020905b8154815290600101906020018083116103c557829003601f168201915b5050505050908060040154908060050154908060060160009054906101000a900473ffffffffffffffffffffffffffffffffffffffff16908060060160149054906101000a900460ff16905088565b82805461043d90610854565b90600052602060002090601f01602090048101928261045f57600085556104a6565b82601f1061047857805160ff19168380011785556104a6565b828001600101855582156104a6579182015b828111156104a557825182559160200191906001019061048a565b5b5090506104b391906104b7565b5090565b5b808211156104d05760008160009055506001016104b8565b5090565b60006104e76104e28461077e565b61074d565b9050828152602081018484840111156104ff57600080fd5b61050a848285610812565b509392505050565b600082601f83011261052357600080fd5b81356105338482602086016104d4565b91505092915050565b60008135905061054b8161096d565b92915050565b600080600080600060a0868803121561056957600080fd5b600086013567ffffffffffffffff81111561058357600080fd5b61058f88828901610512565b955050602086013567ffffffffffffffff8111156105ac57600080fd5b6105b888828901610512565b945050604086013567ffffffffffffffff8111156105d557600080fd5b6105e188828901610512565b93505060606105f28882890161053c565b92505060806106038882890161053c565b9150509295509295909350565b60006020828403121561062257600080fd5b60006106308482850161053c565b91505092915050565b610642816107ca565b82525050565b610651816107dc565b82525050565b6000610662826107ae565b61066c81856107b9565b935061067c818560208601610821565b6106858161095c565b840191505092915050565b61069981610808565b82525050565b60006020820190506106b46000830184610690565b92915050565b6000610100820190506106d0600083018b610690565b81810360208301526106e2818a610657565b905081810360408301526106f68189610657565b9050818103606083015261070a8188610657565b90506107196080830187610690565b61072660a0830186610690565b61073360c0830185610639565b61074060e0830184610648565b9998505050505050505050565b6000604051905081810181811067ffffffffffffffff821117156107745761077361092d565b5b8060405250919050565b600067ffffffffffffffff8211156107995761079861092d565b5b601f19601f8301169050602081019050919050565b600081519050919050565b600082825260208201905092915050565b60006107d5826107e8565b9050919050565b60008115159050919050565b600073ffffffffffffffffffffffffffffffffffffffff82169050919050565b6000819050919050565b82818337600083830152505050565b60005b8381101561083f578082015181840152602081019050610824565b8381111561084e576000848401525b50505050565b6000600282049050600182168061086c57607f821691505b602082108114156108805761087f6108fe565b5b50919050565b600061089182610808565b91507fffffffffffffffffffffffffffffffffffffffffffffffffffffffffffffffff8214156108c4576108c36108cf565b5b600182019050919050565b7f4e487b7100000000000000000000000000000000000000000000000000000000600052601160045260246000fd5b7f4e487b7100000000000000000000000000000000000000000000000000000000600052602260045260246000fd5b7f4e487b7100000000000000000000000000000000000000000000000000000000600052604160045260246000fd5b6000601f19601f8301169050919050565b61097681610808565b811461098157600080fd5b5056fea264697066735822122040564588a2969be41308359e0c6eabc09af5db90de75bdf3a27ab8e1f468255264736f6c63430008000033",
  "immutableReferences": {},
  "source": "// SPDX-License-Identifier: MIT\npragma solidity ^0.8.0;\n\ncontract LandRegistry {\n    struct Property {\n        uint256 id;\n        string city;\n        string district;\n        string street;\n        uint256 squareMeters;\n        uint256 price;\n        address currentOwner;\n        bool isRegistered;\n    }\n\n    mapping(uint256 => Property) public properties;\n    uint256 public propertiesCount;\n\n    constructor() {\n        addProperty(\"Riga\", \"Centrs\", \"Dzirnavu iela\", 290, 315000);\n        addProperty(\"Riga\", \"Teika\", \"Ausmas iela\", 530, 735000);\n        addProperty(\"Riga\", \"Purvciems\", \"Dzelzavas iela\", 750, 971500);\n    }\n\n    function addProperty(\n        string memory city,\n        string memory district,\n        string memory street,\n        uint256 squareMeters,\n        uint256 price\n    ) public {\n        propertiesCount++;\n        properties[propertiesCount] = Property(\n            propertiesCount,\n            city,\n            district,\n            street,\n            squareMeters,\n            price,\n            msg.sender,\n            true\n        );\n    }\n}\n",
  "sourcePath": "/Users/aivisvigo/land-registry/src/truffle/contracts/LandRegistry.sol",
  "compiler": {
    "name": "solc",
    "version": "0.8.0+commit.c7dfd78e.Emscripten.clang"
  },
  "schemaVersion": "3.4.16",
  "updatedAt": "2024-12-13T09:10:21.071Z",
  "networkType": "ethereum",
  "devdoc": {
    "kind": "dev",
    "methods": {},
    "version": 1
  },
  "userdoc": {
    "kind": "user",
    "methods": {},
    "version": 1
  }
}