{
  "contractName": "LandRegistry",
  "abi": [
    {
      "inputs": [],
      "stateMutability": "nonpayable",
      "type": "constructor"
    },
    {
      "inputs": [
        {
          "internalType": "uint256",
          "name": "",
          "type": "uint256"
        }
      ],
      "name": "properties",
      "outputs": [
        {
          "internalType": "uint256",
          "name": "id",
          "type": "uint256"
        },
        {
          "internalType": "string",
          "name": "city",
          "type": "string"
        },
        {
          "internalType": "string",
          "name": "district",
          "type": "string"
        },
        {
          "internalType": "string",
          "name": "street",
          "type": "string"
        },
        {
          "internalType": "uint256",
          "name": "squareMeters",
          "type": "uint256"
        },
        {
          "internalType": "uint256",
          "name": "price",
          "type": "uint256"
        },
        {
          "internalType": "address",
          "name": "currentOwner",
          "type": "address"
        },
        {
          "internalType": "bool",
          "name": "activeListing",
          "type": "bool"
        },
        {
          "internalType": "bool",
          "name": "isRegistered",
          "type": "bool"
        }
      ],
      "stateMutability": "view",
      "type": "function",
      "constant": true
    },
    {
      "inputs": [],
      "name": "propertiesCount",
      "outputs": [
        {
          "internalType": "uint256",
          "name": "",
          "type": "uint256"
        }
      ],
      "stateMutability": "view",
      "type": "function",
      "constant": true
    },
    {
      "inputs": [
        {
          "internalType": "string",
          "name": "city",
          "type": "string"
        },
        {
          "internalType": "string",
          "name": "district",
          "type": "string"
        },
        {
          "internalType": "string",
          "name": "street",
          "type": "string"
        },
        {
          "internalType": "uint256",
          "name": "squareMeters",
          "type": "uint256"
        },
        {
          "internalType": "uint256",
          "name": "price",
          "type": "uint256"
        }
      ],
      "name": "addProperty",
      "outputs": [],
      "stateMutability": "nonpayable",
      "type": "function"
    },
    {
      "inputs": [
        {
          "internalType": "uint256",
          "name": "propertyId",
          "type": "uint256"
        },
        {
          "internalType": "address",
          "name": "currentOwner",
          "type": "address"
        },
        {
          "internalType": "address",
          "name": "newOwner",
          "type": "address"
        }
      ],
      "name": "transferOwnership",
      "outputs": [],
      "stateMutability": "nonpayable",
      "type": "function"
    },
    {
      "inputs": [
        {
          "internalType": "uint256",
          "name": "propertyId",
          "type": "uint256"
        }
      ],
      "name": "buyProperty",
      "outputs": [],
      "stateMutability": "payable",
      "type": "function",
      "payable": true
    },
    {
      "inputs": [
        {
          "internalType": "uint256",
          "name": "propertyId",
          "type": "uint256"
        }
      ],
      "name": "toggleListing",
      "outputs": [],
      "stateMutability": "nonpayable",
      "type": "function"
    }
  ],
  "bytecode": "0x60806040523480156200001157600080fd5b50620000cb6040518060400160405280600481526020017f52696761000000000000000000000000000000000000000000000000000000008152506040518060400160405280600681526020017f43656e74727300000000000000000000000000000000000000000000000000008152506040518060400160405280600d81526020017f447a69726e6176752069656c61000000000000000000000000000000000000008152506101226204ce786200024360201b60201c565b620001846040518060400160405280600481526020017f52696761000000000000000000000000000000000000000000000000000000008152506040518060400160405280600581526020017f5465696b610000000000000000000000000000000000000000000000000000008152506040518060400160405280600b81526020017f4175736d61732069656c61000000000000000000000000000000000000000000815250610212620b37186200024360201b60201c565b6200023d6040518060400160405280600481526020017f52696761000000000000000000000000000000000000000000000000000000008152506040518060400160405280600981526020017f507572766369656d7300000000000000000000000000000000000000000000008152506040518060400160405280600e81526020017f447a656c7a617661732069656c610000000000000000000000000000000000008152506102ee620ed2ec6200024360201b60201c565b62000578565b600160008154809291906200025890620004cc565b919050555060405180610120016040528060015481526020018681526020018581526020018481526020018381526020018281526020013373ffffffffffffffffffffffffffffffffffffffff168152602001600115158152602001600115158152506000806001548152602001908152602001600020600082015181600001556020820151816001019080519060200190620002f7929190620003dc565b50604082015181600201908051906020019062000316929190620003dc565b50606082015181600301908051906020019062000335929190620003dc565b506080820151816004015560a0820151816005015560c08201518160060160006101000a81548173ffffffffffffffffffffffffffffffffffffffff021916908373ffffffffffffffffffffffffffffffffffffffff16021790555060e08201518160060160146101000a81548160ff0219169083151502179055506101008201518160060160156101000a81548160ff0219169083151502179055509050505050505050565b828054620003ea9062000496565b90600052602060002090601f0160209004810192826200040e57600085556200045a565b82601f106200042957805160ff19168380011785556200045a565b828001600101855582156200045a579182015b82811115620004595782518255916020019190600101906200043c565b5b5090506200046991906200046d565b5090565b5b80821115620004885760008160009055506001016200046e565b5090565b6000819050919050565b60006002820490506001821680620004af57607f821691505b60208210811415620004c657620004c562000549565b5b50919050565b6000620004d9826200048c565b91507fffffffffffffffffffffffffffffffffffffffffffffffffffffffffffffffff8214156200050f576200050e6200051a565b5b600182019050919050565b7f4e487b7100000000000000000000000000000000000000000000000000000000600052601160045260246000fd5b7f4e487b7100000000000000000000000000000000000000000000000000000000600052602260045260246000fd5b61146980620005886000396000f3fe6080604052600436106100555760003560e01c8063045cfded1461005a57806311447e87146100835780636fa830a6146100ae578063952388c9146100ca57806399a50e78146100f3578063f7b108081461011c575b600080fd5b34801561006657600080fd5b50610081600480360381019061007c9190610b93565b610161565b005b34801561008f57600080fd5b506100986102f2565b6040516100a59190611128565b60405180910390f35b6100c860048036038101906100c39190610c52565b6102f8565b005b3480156100d657600080fd5b506100f160048036038101906100ec9190610c7b565b6104e2565b005b3480156100ff57600080fd5b5061011a60048036038101906101159190610c52565b61071e565b005b34801561012857600080fd5b50610143600480360381019061013e9190610c52565b61083e565b60405161015899989796959493929190611143565b60405180910390f35b600160008154809291906101749061131e565b919050555060405180610120016040528060015481526020018681526020018581526020018481526020018381526020018281526020013373ffffffffffffffffffffffffffffffffffffffff168152602001600115158152602001600115158152506000806001548152602001908152602001600020600082015181600001556020820151816001019080519060200190610211929190610a5e565b50604082015181600201908051906020019061022e929190610a5e565b50606082015181600301908051906020019061024b929190610a5e565b506080820151816004015560a0820151816005015560c08201518160060160006101000a81548173ffffffffffffffffffffffffffffffffffffffff021916908373ffffffffffffffffffffffffffffffffffffffff16021790555060e08201518160060160146101000a81548160ff0219169083151502179055506101008201518160060160156101000a81548160ff0219169083151502179055509050505050505050565b60015481565b600080600083815260200190815260200160002090508060060160159054906101000a900460ff1661035f576040517f08c379a000000000000000000000000000000000000000000000000000000000815260040161035690611028565b60405180910390fd5b806000015482146103a5576040517f08c379a000000000000000000000000000000000000000000000000000000000815260040161039c90611108565b60405180910390fd5b80600501543410156103ec576040517f08c379a00000000000000000000000000000000000000000000000000000000081526004016103e3906110e8565b60405180910390fd5b600115158160060160149054906101000a900460ff16151514610444576040517f08c379a000000000000000000000000000000000000000000000000000000000815260040161043b90611068565b60405180910390fd5b8060060160009054906101000a900473ffffffffffffffffffffffffffffffffffffffff1673ffffffffffffffffffffffffffffffffffffffff166108fc349081150290604051600060405180830381858888f193505050501580156104ae573d6000803e3d6000fd5b506104de828260060160009054906101000a900473ffffffffffffffffffffffffffffffffffffffff16336104e2565b5050565b60008084815260200190815260200160002060060160159054906101000a900460ff16610544576040517f08c379a000000000000000000000000000000000000000000000000000000000815260040161053b906110c8565b60405180910390fd5b8173ffffffffffffffffffffffffffffffffffffffff1660008085815260200190815260200160002060060160009054906101000a900473ffffffffffffffffffffffffffffffffffffffff1673ffffffffffffffffffffffffffffffffffffffff16146105e7576040517f08c379a00000000000000000000000000000000000000000000000000000000081526004016105de90611088565b60405180910390fd5b600073ffffffffffffffffffffffffffffffffffffffff168173ffffffffffffffffffffffffffffffffffffffff161415610657576040517f08c379a000000000000000000000000000000000000000000000000000000000815260040161064e90611008565b60405180910390fd5b3373ffffffffffffffffffffffffffffffffffffffff168173ffffffffffffffffffffffffffffffffffffffff16146106c5576040517f08c379a00000000000000000000000000000000000000000000000000000000081526004016106bc906110a8565b60405180910390fd5b8060008085815260200190815260200160002060060160006101000a81548173ffffffffffffffffffffffffffffffffffffffff021916908373ffffffffffffffffffffffffffffffffffffffff160217905550505050565b600080600083815260200190815260200160002090508060000154821461077a576040517f08c379a000000000000000000000000000000000000000000000000000000000815260040161077190611108565b60405180910390fd5b8060060160009054906101000a900473ffffffffffffffffffffffffffffffffffffffff1673ffffffffffffffffffffffffffffffffffffffff163373ffffffffffffffffffffffffffffffffffffffff161461080c576040517f08c379a000000000000000000000000000000000000000000000000000000000815260040161080390611048565b60405180910390fd5b8060060160149054906101000a900460ff16158160060160146101000a81548160ff0219169083151502179055505050565b6000602052806000526040600020600091509050806000015490806001018054610867906112ec565b80601f0160208091040260200160405190810160405280929190818152602001828054610893906112ec565b80156108e05780601f106108b5576101008083540402835291602001916108e0565b820191906000526020600020905b8154815290600101906020018083116108c357829003601f168201915b5050505050908060020180546108f5906112ec565b80601f0160208091040260200160405190810160405280929190818152602001828054610921906112ec565b801561096e5780601f106109435761010080835404028352916020019161096e565b820191906000526020600020905b81548152906001019060200180831161095157829003601f168201915b505050505090806003018054610983906112ec565b80601f01602080910402602001604051908101604052809291908181526020018280546109af906112ec565b80156109fc5780601f106109d1576101008083540402835291602001916109fc565b820191906000526020600020905b8154815290600101906020018083116109df57829003601f168201915b5050505050908060040154908060050154908060060160009054906101000a900473ffffffffffffffffffffffffffffffffffffffff16908060060160149054906101000a900460ff16908060060160159054906101000a900460ff16905089565b828054610a6a906112ec565b90600052602060002090601f016020900481019282610a8c5760008555610ad3565b82601f10610aa557805160ff1916838001178555610ad3565b82800160010185558215610ad3579182015b82811115610ad2578251825591602001919060010190610ab7565b5b509050610ae09190610ae4565b5090565b5b80821115610afd576000816000905550600101610ae5565b5090565b6000610b14610b0f84611216565b6111e5565b905082815260208101848484011115610b2c57600080fd5b610b378482856112aa565b509392505050565b600081359050610b4e81611405565b92915050565b600082601f830112610b6557600080fd5b8135610b75848260208601610b01565b91505092915050565b600081359050610b8d8161141c565b92915050565b600080600080600060a08688031215610bab57600080fd5b600086013567ffffffffffffffff811115610bc557600080fd5b610bd188828901610b54565b955050602086013567ffffffffffffffff811115610bee57600080fd5b610bfa88828901610b54565b945050604086013567ffffffffffffffff811115610c1757600080fd5b610c2388828901610b54565b9350506060610c3488828901610b7e565b9250506080610c4588828901610b7e565b9150509295509295909350565b600060208284031215610c6457600080fd5b6000610c7284828501610b7e565b91505092915050565b600080600060608486031215610c9057600080fd5b6000610c9e86828701610b7e565b9350506020610caf86828701610b3f565b9250506040610cc086828701610b3f565b9150509250925092565b610cd381611262565b82525050565b610ce281611274565b82525050565b6000610cf382611246565b610cfd8185611251565b9350610d0d8185602086016112b9565b610d16816113f4565b840191505092915050565b6000610d2e601a83611251565b91507f496e76616c6964206e6577206f776e65727320616464726573730000000000006000830152602082019050919050565b6000610d6e603083611251565b91507f50726f706572747920796f752061726520747279696e6720746f20627579206960008301527f73206e6f742072656769737465726564000000000000000000000000000000006020830152604082019050919050565b6000610dd4602683611251565b91507f4c697374696e6720646f65736e27742062656c6f6e6720746f2074686973206160008301527f63636f756e7400000000000000000000000000000000000000000000000000006020830152604082019050919050565b6000610e3a601a83611251565b91507f43616e27742062757920696e616374697665206c697374696e670000000000006000830152602082019050919050565b6000610e7a602883611251565b91507f4f6e6c792063757272656e74206f776e65722063616e206d616b65207468652060008301527f7472616e736665720000000000000000000000000000000000000000000000006020830152604082019050919050565b6000610ee0602483611251565b91507f4e6577206f776e65722063616e2774206265207468652063757272656e74206f60008301527f776e6572000000000000000000000000000000000000000000000000000000006020830152604082019050919050565b6000610f46601a83611251565b91507f50726f7065727479206973206e6f7420726567697374657265640000000000006000830152602082019050919050565b6000610f86601783611251565b91507f496e73756666696369656e742066756e64732073656e740000000000000000006000830152602082019050919050565b6000610fc6601a83611251565b91507f50726f70657274792049442773206e6f74206d61746368696e670000000000006000830152602082019050919050565b611002816112a0565b82525050565b6000602082019050818103600083015261102181610d21565b9050919050565b6000602082019050818103600083015261104181610d61565b9050919050565b6000602082019050818103600083015261106181610dc7565b9050919050565b6000602082019050818103600083015261108181610e2d565b9050919050565b600060208201905081810360008301526110a181610e6d565b9050919050565b600060208201905081810360008301526110c181610ed3565b9050919050565b600060208201905081810360008301526110e181610f39565b9050919050565b6000602082019050818103600083015261110181610f79565b9050919050565b6000602082019050818103600083015261112181610fb9565b9050919050565b600060208201905061113d6000830184610ff9565b92915050565b600061012082019050611159600083018c610ff9565b818103602083015261116b818b610ce8565b9050818103604083015261117f818a610ce8565b905081810360608301526111938189610ce8565b90506111a26080830188610ff9565b6111af60a0830187610ff9565b6111bc60c0830186610cca565b6111c960e0830185610cd9565b6111d7610100830184610cd9565b9a9950505050505050505050565b6000604051905081810181811067ffffffffffffffff8211171561120c5761120b6113c5565b5b8060405250919050565b600067ffffffffffffffff821115611231576112306113c5565b5b601f19601f8301169050602081019050919050565b600081519050919050565b600082825260208201905092915050565b600061126d82611280565b9050919050565b60008115159050919050565b600073ffffffffffffffffffffffffffffffffffffffff82169050919050565b6000819050919050565b82818337600083830152505050565b60005b838110156112d75780820151818401526020810190506112bc565b838111156112e6576000848401525b50505050565b6000600282049050600182168061130457607f821691505b6020821081141561131857611317611396565b5b50919050565b6000611329826112a0565b91507fffffffffffffffffffffffffffffffffffffffffffffffffffffffffffffffff82141561135c5761135b611367565b5b600182019050919050565b7f4e487b7100000000000000000000000000000000000000000000000000000000600052601160045260246000fd5b7f4e487b7100000000000000000000000000000000000000000000000000000000600052602260045260246000fd5b7f4e487b7100000000000000000000000000000000000000000000000000000000600052604160045260246000fd5b6000601f19601f8301169050919050565b61140e81611262565b811461141957600080fd5b50565b611425816112a0565b811461143057600080fd5b5056fea264697066735822122052a6ffa5038e9fd9e4042345c1e9773a4a4903891ec6ee5bb86e911f8f59adda64736f6c63430008000033",
  "immutableReferences": {},
  "source": "// SPDX-License-Identifier: MIT\npragma solidity ^0.8.0;\n\ncontract LandRegistry {\n    struct Property {\n        uint256 id;\n        string city;\n        string district;\n        string street;\n        uint256 squareMeters;\n        uint256 price;\n        address currentOwner;\n        bool activeListing;\n        bool isRegistered;\n    }\n\n    mapping(uint256 => Property) public properties;\n    uint256 public propertiesCount;\n\n    constructor() {\n        addProperty(\"Riga\", \"Centrs\", \"Dzirnavu iela\", 290, 315000);\n        addProperty(\"Riga\", \"Teika\", \"Ausmas iela\", 530, 735000);\n        addProperty(\"Riga\", \"Purvciems\", \"Dzelzavas iela\", 750, 971500);\n    }\n\n    function addProperty(\n        string memory city,\n        string memory district,\n        string memory street,\n        uint256 squareMeters,\n        uint256 price\n    ) public {\n        propertiesCount++;\n\n        properties[propertiesCount] = Property(\n            propertiesCount,\n            city,\n            district,\n            street,\n            squareMeters,\n            price,\n            msg.sender,\n            true,\n            true\n        );\n    }\n\n    function transferOwnership(\n        uint256 propertyId,\n        address currentOwner,\n        address newOwner\n    ) public {\n        require(properties[propertyId].isRegistered, \"Property is not registered\");\n        require(properties[propertyId].currentOwner == currentOwner, \"Only current owner can make the transfer\");\n        require(newOwner != address(0), \"Invalid new owners address\");\n        require(newOwner == msg.sender, \"New owner can't be the current owner\");\n\n        properties[propertyId].currentOwner = newOwner;\n    }\n\n    /* todo: take it off the market in the end if needed */\n    /* todo: fees for transaction and notary */\n    function buyProperty(\n        uint256 propertyId\n    ) public payable {\n        Property storage property = properties[propertyId];\n\n        require(property.isRegistered, \"Property you are trying to buy is not registered\");\n        require(propertyId == property.id, \"Property ID's not matching\");\n        require(msg.value >= property.price, \"Insufficient funds sent\");\n        require(property.activeListing == true, \"Can't buy inactive listing\");\n\n        payable(property.currentOwner).transfer(msg.value);\n\n        transferOwnership(propertyId, property.currentOwner, msg.sender);\n    }\n\n    function toggleListing(\n        uint256 propertyId\n    ) public {\n        Property storage property = properties[propertyId];\n\n        require(propertyId == property.id, \"Property ID's not matching\");\n        require(msg.sender == property.currentOwner, \"Listing doesn't belong to this account\");\n\n        property.activeListing = !property.activeListing;\n    }\n}\n",
  "sourcePath": "/Users/aivisvigo/land-registry/src/truffle/contracts/LandRegistry.sol",
  "compiler": {
    "name": "solc",
    "version": "0.8.0+commit.c7dfd78e.Emscripten.clang"
  },
  "schemaVersion": "3.4.16",
  "updatedAt": "2024-12-13T14:00:47.789Z",
  "networkType": "ethereum",
  "devdoc": {
    "kind": "dev",
    "methods": {},
    "version": 1
  },
  "userdoc": {
    "kind": "user",
    "methods": {},
    "version": 1
  }
}