{
  "contractName": "LandRegistry",
  "abi": [
    {
      "inputs": [],
      "stateMutability": "nonpayable",
      "type": "constructor"
    },
    {
      "inputs": [
        {
          "internalType": "uint256",
          "name": "",
          "type": "uint256"
        }
      ],
      "name": "properties",
      "outputs": [
        {
          "internalType": "uint256",
          "name": "id",
          "type": "uint256"
        },
        {
          "internalType": "string",
          "name": "city",
          "type": "string"
        },
        {
          "internalType": "string",
          "name": "district",
          "type": "string"
        },
        {
          "internalType": "string",
          "name": "street",
          "type": "string"
        },
        {
          "internalType": "uint256",
          "name": "squareMeters",
          "type": "uint256"
        },
        {
          "internalType": "uint256",
          "name": "price",
          "type": "uint256"
        },
        {
          "internalType": "address",
          "name": "currentOwner",
          "type": "address"
        },
        {
          "internalType": "bool",
          "name": "isRegistered",
          "type": "bool"
        }
      ],
      "stateMutability": "view",
      "type": "function",
      "constant": true
    },
    {
      "inputs": [],
      "name": "propertiesCount",
      "outputs": [
        {
          "internalType": "uint256",
          "name": "",
          "type": "uint256"
        }
      ],
      "stateMutability": "view",
      "type": "function",
      "constant": true
    }
  ],
  "bytecode": "0x608060405234801561001057600080fd5b506100c86040518060400160405280600481526020017f52696761000000000000000000000000000000000000000000000000000000008152506040518060400160405280600681526020017f43656e74727300000000000000000000000000000000000000000000000000008152506040518060400160405280600d81526020017f447a69726e6176752069656c61000000000000000000000000000000000000008152506101226204ce7861023b60201b60201c565b61017f6040518060400160405280600481526020017f52696761000000000000000000000000000000000000000000000000000000008152506040518060400160405280600581526020017f5465696b610000000000000000000000000000000000000000000000000000008152506040518060400160405280600b81526020017f4175736d61732069656c61000000000000000000000000000000000000000000815250610212620b371861023b60201b60201c565b6102366040518060400160405280600481526020017f52696761000000000000000000000000000000000000000000000000000000008152506040518060400160405280600981526020017f507572766369656d7300000000000000000000000000000000000000000000008152506040518060400160405280600e81526020017f447a656c7a617661732069656c610000000000000000000000000000000000008152506102ee620ed2ec61023b60201b60201c565b610528565b6001600081548092919061024e90610481565b919050555060405180610100016040528060015481526020018681526020018581526020018481526020018381526020018281526020013373ffffffffffffffffffffffffffffffffffffffff1681526020016001151581525060008060015481526020019081526020016000206000820151816000015560208201518160010190805190602001906102e29291906103a2565b5060408201518160020190805190602001906102ff9291906103a2565b50606082015181600301908051906020019061031c9291906103a2565b506080820151816004015560a0820151816005015560c08201518160060160006101000a81548173ffffffffffffffffffffffffffffffffffffffff021916908373ffffffffffffffffffffffffffffffffffffffff16021790555060e08201518160060160146101000a81548160ff0219169083151502179055509050505050505050565b8280546103ae9061044f565b90600052602060002090601f0160209004810192826103d05760008555610417565b82601f106103e957805160ff1916838001178555610417565b82800160010185558215610417579182015b828111156104165782518255916020019190600101906103fb565b5b5090506104249190610428565b5090565b5b80821115610441576000816000905550600101610429565b5090565b6000819050919050565b6000600282049050600182168061046757607f821691505b6020821081141561047b5761047a6104f9565b5b50919050565b600061048c82610445565b91507fffffffffffffffffffffffffffffffffffffffffffffffffffffffffffffffff8214156104bf576104be6104ca565b5b600182019050919050565b7f4e487b7100000000000000000000000000000000000000000000000000000000600052601160045260246000fd5b7f4e487b7100000000000000000000000000000000000000000000000000000000600052602260045260246000fd5b61054b806105376000396000f3fe608060405234801561001057600080fd5b50600436106100365760003560e01c806311447e871461003b578063f7b1080814610059575b600080fd5b610043610090565b6040516100509190610347565b60405180910390f35b610073600480360381019061006e91906102b8565b610096565b604051610087989796959493929190610362565b60405180910390f35b60015481565b60006020528060005260406000206000915090508060000154908060010180546100bf9061048c565b80601f01602080910402602001604051908101604052809291908181526020018280546100eb9061048c565b80156101385780601f1061010d57610100808354040283529160200191610138565b820191906000526020600020905b81548152906001019060200180831161011b57829003601f168201915b50505050509080600201805461014d9061048c565b80601f01602080910402602001604051908101604052809291908181526020018280546101799061048c565b80156101c65780601f1061019b576101008083540402835291602001916101c6565b820191906000526020600020905b8154815290600101906020018083116101a957829003601f168201915b5050505050908060030180546101db9061048c565b80601f01602080910402602001604051908101604052809291908181526020018280546102079061048c565b80156102545780601f1061022957610100808354040283529160200191610254565b820191906000526020600020905b81548152906001019060200180831161023757829003601f168201915b5050505050908060040154908060050154908060060160009054906101000a900473ffffffffffffffffffffffffffffffffffffffff16908060060160149054906101000a900460ff16905088565b6000813590506102b2816104fe565b92915050565b6000602082840312156102ca57600080fd5b60006102d8848285016102a3565b91505092915050565b6102ea81610411565b82525050565b6102f981610423565b82525050565b600061030a826103f5565b6103148185610400565b9350610324818560208601610459565b61032d816104ed565b840191505092915050565b6103418161044f565b82525050565b600060208201905061035c6000830184610338565b92915050565b600061010082019050610378600083018b610338565b818103602083015261038a818a6102ff565b9050818103604083015261039e81896102ff565b905081810360608301526103b281886102ff565b90506103c16080830187610338565b6103ce60a0830186610338565b6103db60c08301856102e1565b6103e860e08301846102f0565b9998505050505050505050565b600081519050919050565b600082825260208201905092915050565b600061041c8261042f565b9050919050565b60008115159050919050565b600073ffffffffffffffffffffffffffffffffffffffff82169050919050565b6000819050919050565b60005b8381101561047757808201518184015260208101905061045c565b83811115610486576000848401525b50505050565b600060028204905060018216806104a457607f821691505b602082108114156104b8576104b76104be565b5b50919050565b7f4e487b7100000000000000000000000000000000000000000000000000000000600052602260045260246000fd5b6000601f19601f8301169050919050565b6105078161044f565b811461051257600080fd5b5056fea26469706673582212204101884597f81e10acf0a63fbf478c187d924971c9fd03e3db031bd935edd97c64736f6c63430008000033",
  "immutableReferences": {},
  "source": "// SPDX-License-Identifier: MIT\npragma solidity ^0.8.0;\n\ncontract LandRegistry {\n    struct Property {\n        uint256 id;\n        string city;\n        string district;\n        string street;\n        uint256 squareMeters;\n        uint256 price;\n        address currentOwner;\n        bool isRegistered;\n    }\n\n    mapping(uint256 => Property) public properties;\n    uint256 public propertiesCount;\n\n    constructor() {\n        addProperty(\"Riga\", \"Centrs\", \"Dzirnavu iela\", 290, 315000);\n        addProperty(\"Riga\", \"Teika\", \"Ausmas iela\", 530, 735000);\n        addProperty(\"Riga\", \"Purvciems\", \"Dzelzavas iela\", 750, 971500);\n    }\n\n    function addProperty(\n        string memory city,\n        string memory district,\n        string memory street,\n        uint256 squareMeters,\n        uint256 price\n    ) private {\n        propertiesCount++;\n        properties[propertiesCount] = Property(\n            propertiesCount,\n            city,\n            district,\n            street,\n            squareMeters,\n            price,\n            msg.sender,\n            true\n        );\n    }\n}\n",
  "sourcePath": "/Users/aivisvigo/land-registry/src/truffle/contracts/LandRegistry.sol",
  "compiler": {
    "name": "solc",
    "version": "0.8.0+commit.c7dfd78e.Emscripten.clang"
  },
  "schemaVersion": "3.4.16",
  "updatedAt": "2024-12-12T16:06:09.537Z",
  "networkType": "ethereum",
  "devdoc": {
    "kind": "dev",
    "methods": {},
    "version": 1
  },
  "userdoc": {
    "kind": "user",
    "methods": {},
    "version": 1
  }
}